:020000040800F2
:10000000005000203D070008C5060008CB06000888
:10001000D1060008D7060008DD0600080000000031
:10002000000000000000000000000000E3060008DF
:10003000EF06000800000000FB06000807070008A4
:100040008507000885070008850700088507000860
:100050008507000885070008850700088507000850
:100060008507000885070008850700088507000840
:100070008507000885070008850700088507000830
:100080008507000885070008850700088507000820
:100090001507000885070008850700088507000880
:1000A0008507000885070008850700088507000800
:1000B00085070008850700088507000885070008F0
:1000C00085070008850700088507000885070008E0
:1000D00085070008850700088507000885070008D0
:1000E0008507000885070008850700080000000054
:1000F0000000000000000000000000000000000000
:0C01000000000000000000005FF808F1A3
:10010C0010B5054C237833B9044B13B10448AFF345
:10011C0000800123237010BD7C0100200000000032
:10012C009C79000808B5034B1BB103490348AFF396
:10013C00008008BD00000000800100209C790008B0
:10014C0080B500AF00F01AFB00F05AF800F0E8F8A8
:10015C0000F0B0F806F07AFF254B00225A61244BD0
:10016C0000229A61224B00221A61214B00221A6054
:10017C001F4B00225A601E4B00229A601C4B00221F
:10018C00DA601B4B0122DA61194B01221A62184BFF
:10019C000E225A62174B08221A61164B00229A60E3
:1001AC00144B0022DA60134B30221A60114B0222DE
:1001BC005A60104B00221A750D490F4800F05DFC77
:1001CC000D4800F023FD02210B4800F03DFE00F02D
:1001DC008BF90A2000F034FB00F040F94FF4005189
:1001EC00064801F014FB4FF47A7000F029FBEEE79F
:1001FC0028040020C4030020F80300200010014054
:10020C0080B594B000AF07F12803282200211846CE
:10021C0007F0B6FB07F1140300221A605A609A60CB
:10022C00DA601A613B1D00221A605A609A60DA602B
:10023C000123BB624FF48033FB6200233B63012339
:10024C00BB6302237B644FF48033BB644FF4E01335
:10025C00FB6407F12803184602F076FE0346002BD8
:10026C0001D000F08BF90F237B610223BB610023CB
:10027C00FB614FF480633B6200237B6207F1140344
:10028C000221184603F0E0F80346002B01D000F0E1
:10029C0075F910237B6000233B613B1D184603F06E
:1002AC003DFA0346002B01D000F068F900BF50372F
:1002BC00BD4680BD80B500AF174B184A1A60164B6F
:1002CC0009225A60144B00229A60134B0022DA6008
:1002DC00114B4FF400321A610F4B4FF440125A611C
:1002EC000D4B00221A760C4B00225A760A4B002238
:1002FC009A76094B0022DA76074B00221A77064BC6
:10030C0000225A77044800F0BDFA0346002B01D0B6
:10031C0000F034F900BF80BDF803002000640040F9
:10032C0080B588B000AF07F1100300221A605A6044
:10033C009A60DA60444B9B69434A43F01003936123
:10034C00414B9B6903F01003FB60FB683E4B9B69C0
:10035C003D4A43F0200393613B4B9B6903F0200320
:10036C00BB60BB68384B9B69374A43F0040393610D
:10037C00354B9B6903F004037B607B68324B9B69B4
:10038C00314A43F0080393612F4B9B6903F0080338
:10039C003B603B6800224FF400512C4801F01FFADF
:1003AC000022F0212A4801F01AFA002203212948E0
:1003BC0001F015FA4FF400533B6101237B610023DC
:1003CC00BB610223FB6107F1100319461F4801F0C2
:1003DC0095F8F0233B6101237B610023BB61022371
:1003EC00FB6107F110031946194801F087F8032344
:1003FC003B6101237B610023BB610223FB6107F19D
:10040C0010031946134801F079F84FF470433B611F
:10041C00114B7B610023BB6107F1100319460D489A
:10042C0001F06CF84FF4E0633B610B4B7B610023F4
:10043C00BB6107F110031946054801F05FF800BFD6
:10044C002037BD4680BD00BF0010024000100140A7
:10045C0000080140000C01400000111080B582B072
:10046C0000AF0023FB710023FB7126E0FB79194AD6
:10047C00D35C002B0DD1184B1B785AB2FB790121A0
:10048C0001FA03F35BB213435BB2DAB2124B1A708C
:10049C0010E0114B1B785BB2DB435AB2FB790121A4
:1004AC0001FA03F35BB213435BB2DBB2DB43DAB2A8
:1004BC00094B1A70FB790133FB71FB79062BD5D9EB
:1004CC00064B044A0649074800F0E4FB00BF083716
:1004DC00BD4680BD2004002098010020500400205F
:1004EC00C4030020F803002080B500AF4FF4805106
:1004FC001F4801F05DF903461A461E4B9A714FF4E2
:10050C0000511B4801F054F903461A46194B1A7155
:10051C004FF48041164801F04BF903461A46154B2F
:10052C005A714FF40041124801F042F903461A4641
:10053C00104BDA704FF480710F4801F039F9034613
:10054C001A460C4B9A704FF400710B4801F030F9BD
:10055C0003461A46074B1A704FF48061064801F0A7
:10056C0027F903461A46034B5A7000BF80BD00BFE3
:10057C00000C0140200400200008014080B400AFB2
:10058C0072B6FEE780B485B000AF154B9B69144A78
:10059C0043F001039361124B9B6903F00103BB60B1
:1005AC00BB680F4BDB690E4A43F08053D3610C4B95
:1005BC00DB6903F080537B607B680A4B5B68FB60F4
:1005CC00FB6823F0E063FB60FB6843F00073FB60A7
:1005DC00044AFB68536000BF1437BD4680BC7047AB
:1005EC00001002400000014080B58AB000AF786076
:1005FC0007F1140300221A605A609A60DA607B6873
:10060C001B68294A93424BD1284BDB69274A43F09C
:10061C000073D361254BDB6903F000733B613B69CD
:10062C00224B9B69214A43F0080393611F4B9B6942
:10063C0003F00803FB60FB684FF480737B610023BD
:10064C00BB610023FB6107F114031946184800F045
:10065C0055FF4FF400737B610223BB6103233B62A4
:10066C0007F114031946124800F048FF114B5B6860
:10067C007B627B6A23F4C0437B627B6A43F0E0635A
:10068C007B627B6A43F480437B620A4A7B6A5360D9
:10069C0000220021142000F0FAFE142000F013FFB9
:1006AC0000BF2837BD4680BD0064004000100240EA
:1006BC00000C01400000014080B400AFFEE780B4A4
:1006CC0000AFFEE780B400AFFEE780B400AFFEE7FA
:1006DC0080B400AFFEE780B400AF00BFBD4680BC65
:1006EC00704780B400AF00BFBD4680BC704780B47B
:1006FC0000AF00BFBD4680BC704780B500AF00F0B6
:10070C0083F800BF80BD000080B500AF034800F047
:10071C00C0FB034801F0C5F900BF80BDF803002001
:10072C00EC10002080B400AF00BFBD4680BC704709
:10073C00002103E00B4B5B58435004310A480B4B30
:10074C0042189A42F6D30A4A02E0002342F8043BCC
:10075C00084B9A42F9D3FFF7E5FF07F0EDF8FFF7E6
:10076C00EFFC7047287A0008000000207C01002074
:10077C007C010020D8130020FEE7000080B500AFFC
:10078C00084B1B68074A43F010031360032000F06A
:10079C0073FE002000F008F8FFF7F4FE0023184663
:1007AC0080BD00BF0020024080B582B000AF7860F1
:1007BC00124B1A68124B1B7819464FF47A73B3FB21
:1007CC00F1F3B2FBF3F3184600F08BFE0346002B5B
:1007DC0001D001230EE07B680F2B0AD80022796828
:1007EC004FF0FF3000F053FE064A7B681360002385
:1007FC0000E0012318460837BD4680BD00000020EC
:10080C00080000200400002080B400AF054B1B78CA
:10081C001A46054B1B681344034A136000BFBD46C0
:10082C0080BC7047080000205404002080B400AF46
:10083C00024B1B681846BD4680BC70475404002010
:10084C0080B584B000AF7860FFF7F0FFB8607B68CC
:10085C00FB60FB68B3F1FF3F05D0094B1B781A46D0
:10086C00FB681344FB6000BFFFF7E0FF0246BB6868
:10087C00D31AFA689A42F7D800BF1037BD4680BD2C
:10088C000800002080B584B000AF78607B68002B36
:10089C0001D10123EDE07B6893F82030DBB2002B13
:1008AC0002D17868FFF7A0FE7B681B681A687B682A
:1008BC001B6822F002021A60FFF7B8FFF86012E022
:1008CC00FFF7B4FF0246FB68D31A0A2B0BD97B68DF
:1008DC005B6A43F400327B685A627B68052283F8BA
:1008EC0020200123C5E07B681B685B6803F00203D2
:1008FC00002BE5D17B681B681A687B681B6842F08B
:10090C0001021A60FFF792FFF86012E0FFF78EFF0A
:10091C000246FB68D31A0A2B0BD97B685B6A43F43B
:10092C0000327B685A627B68052283F82020012301
:10093C009FE07B681B685B6803F00103002BE5D02C
:10094C007B681B7E012B08D17B681B681A687B684F
:10095C001B6842F080021A6007E07B681B681A680B
:10096C007B681B6822F080021A607B685B7E012B1F
:10097C0008D17B681B681A687B681B6842F04002D0
:10098C001A6007E07B681B681A687B681B6822F09A
:10099C0040021A607B689B7E012B08D17B681B6828
:1009AC001A687B681B6842F020021A6007E07B68BB
:1009BC001B681A687B681B6822F020021A607B682F
:1009CC00DB7E012B08D17B681B681A687B681B686F
:1009DC0022F010021A6007E07B681B681A687B68BB
:1009EC001B6842F010021A607B681B7F012B08D138
:1009FC007B681B681A687B681B6842F008021A60E7
:100A0C0007E07B681B681A687B681B6822F0080289
:100A1C001A607B685B7F012B08D17B681B681A68A6
:100A2C007B681B6842F004021A6007E07B681B6855
:100A3C001A687B681B6822F004021A607B689A684B
:100A4C007B68DB681A437B681B691A437B685B69AC
:100A5C0042EA03017B685B685A1E7B681B680A4389
:100A6C00DA617B6800225A627B68012283F82020BD
:100A7C00002318461037BD4680BD80B487B000AF48
:100A8C00786039607B681B687B617B6893F82030E9
:100A9C00FB74FB7C012B03D0FB7C022B40F0AA8067
:100AAC007B69D3F8003243F001027B69C3F8002262
:100ABC003B685B6903F01F03012202FA03F3FB603E
:100ACC007B69D3F81C22FB68DB431A407B69C3F8B3
:100ADC001C223B68DB69002B23D17B69D3F80C22E9
:100AEC00FB68DB431A407B69C3F80C223B68DB686C
:100AFC0019043B685B689BB23A68526919437B697D
:100B0C00483243F832103B689B6819043B681B68F9
:100B1C009AB23B685B690A4379694833DB000B4442
:100B2C005A603B68DB69012B22D17B69D3F80C221C
:100B3C00FB681A437B69C3F80C223B681B681904D9
:100B4C003B685B689BB23A68526919437B694832CF
:100B5C0043F832103B689B6819043B68DB689AB217
:100B6C003B685B690A4379694833DB000B445A6084
:100B7C003B689B69002B09D17B69D3F80422FB6885
:100B8C00DB431A407B69C3F8042207E07B69D3F886
:100B9C000422FB681A437B69C3F804223B681B6977
:100BAC00002B09D17B69D3F81422FB68DB431A4074
:100BBC007B69C3F8142207E07B69D3F81422FB6825
:100BCC001A437B69C3F814223B681B6A012B07D1BB
:100BDC007B69D3F81C22FB681A437B69C3F81C227F
:100BEC007B69D3F8003223F001027B69C3F8002241
:100BFC00002306E07B685B6A43F480227B685A62C0
:100C0C00012318461C37BD4680BC704780B584B0A4
:100C1C0000AF78607B6893F82030DBB2012B2ED1CB
:100C2C007B68022283F820207B681B681A687B682B
:100C3C001B6822F001021A60FFF7F8FDF86012E061
:100C4C00FFF7F4FD0246FB68D31A0A2B0BD97B681D
:100C5C005B6A43F400327B685A627B68052283F836
:100C6C002020012312E07B681B685B6803F0010302
:100C7C00002BE5D17B6800225A62002306E07B68DA
:100C8C005B6A43F400227B685A62012318461037D2
:100C9C00BD4680BD80B489B000AFF860B9607A60A1
:100CAC003B60FB6893F82030FB77FB681B689B6804
:100CBC00BB61FB7F012B03D0FB7F022B40F0B88084
:100CCC00BB6903F08063002B0AD1BB6903F000639E
:100CDC00002B05D1BB6903F08053002B00F0A080E2
:100CEC00BB691B0E03F003037B617B69022B07D9E5
:100CFC00FB685B6A43F40002FB685A6201239EE0C6
:100D0C0001227B699A403B681A60BB689B68002B88
:100D1C000DD1BB681B685A05BB68DB68F9680968AC
:100D2C001A437B6918331B010B441A600FE0BB6834
:100D3C005B68DA00BB689B681A43BB68DB68F968C0
:100D4C0009681A437B6918331B010B441A60FB6852
:100D5C001968BB681A697B6918331B010B4404338F
:100D6C001A60BB681B7D012B11D1FB681A687B696B
:100D7C0018331B01134404331B68FA68116843F4DD
:100D8C0080727B6918331B010B4404331A607B6837
:100D9C0007331B781A067B6806331B781B041A432F
:100DAC007B6805331B781B0213437A680432127874
:100DBC001046FA68116843EA00027B691B010B4478
:100DCC0003F5C6731A607B6803331B781A067B68BD
:100DDC0002331B781B041A437B6801331B781B02FC
:100DEC0013437A6812781046FA68116843EA0002D5
:100DFC007B691B010B4403F5C4731A60FB681A680A
:100E0C007B6918331B0113441B68FA68116843F0A3
:100E1C0001027B6918331B010B441A6000230EE09E
:100E2C00FB685B6A43F40012FB685A62012306E01C
:100E3C00FB685B6A43F48022FB685A620123184604
:100E4C002437BD4680BC704780B485B000AF786055
:100E5C0039607B6893F82030FB73FB7B012B02D04D
:100E6C00FB7B022B09D17B681B6859697B681B686B
:100E7C003A680A435A61002306E07B685B6A43F4D4
:100E8C0080227B685A62012318461437BD4680BC09
:100E9C00704780B58AB000AF786000237B627B68B6
:100EAC001B685B693B627B681B685B68FB617B68EA
:100EBC001B689B68BB617B681B68DB687B617B681C
:100ECC001B681B693B617B681B689B69FB603B6A09
:100EDC0003F00103002B7CD0BB6903F00103002B52
:100EEC0023D07B681B6801229A60BB6903F0020364
:100EFC00002B03D0786800F07DF916E0BB6903F095
:100F0C000403002B04D07B6A43F400637B620CE087
:100F1C00BB6903F00803002B04D07B6A43F48053B5
:100F2C007B6202E0786800F080F9BB6903F480739F
:100F3C00002B24D07B681B684FF480729A60BB69CD
:100F4C0003F40073002B03D0786800F05CF916E012
:100F5C00BB6903F48063002B04D07B6A43F4005319
:100F6C007B620CE0BB6903F40063002B04D07B6A4A
:100F7C0043F480437B6202E0786800F05FF9BB6960
:100F8C0003F48033002B24D07B681B684FF4803231
:100F9C009A60BB6903F40033002B03D0786800F02F
:100FAC003BF916E0BB6903F48023002B04D07B6A69
:100FBC0043F400437B620CE0BB6903F40023002B79
:100FCC0004D07B6A43F480337B6202E0786800F0E3
:100FDC003EF93B6A03F00803002B0CD07B6903F04D
:100FEC001003002B07D07B6A43F400737B627B6891
:100FFC001B681022DA603B6A03F00403002B0BD051
:10100C007B6903F00803002B06D07B681B68082261
:10101C00DA60786800F02DF93B6A03F00203002BCC
:10102C0009D07B681B68DB6803F00303002B02D03C
:10103C00786800F015F93B6A03F04003002B0CD0E4
:10104C003B6903F01003002B07D07B6A43F48063E9
:10105C007B627B681B6810221A613B6A03F02003D9
:10106C00002B0BD03B6903F00803002B06D07B68E8
:10107C001B6808221A61786800F00DF93B6A03F0CE
:10108C001003002B09D07B681B681B6903F003035A
:10109C00002B02D0786800F0F5F83B6A03F40033BB
:1010AC00002B0BD0FB6903F01003002B06D07B68E0
:1010BC001B6810225A60786800F0F6F83B6A03F45B
:1010CC008033002B0BD0FB6903F00803002B06D0F8
:1010DC007B681B6808225A60786800F0EEF83B6A5F
:1010EC0003F40043002B75D0FB6903F00403002BC1
:1010FC006CD03B6A03F48073002B08D0FB6803F0C0
:10110C000103002B03D07B6A43F001037B623B6A33
:10111C0003F40073002B08D0FB6803F00203002BD0
:10112C0003D07B6A43F002037B623B6A03F4806367
:10113C00002B08D0FB6803F00403002B03D07B6A60
:10114C0043F004037B623B6A03F40063002B3DD045
:10115C00FB6803F07003002B38D0FB6803F07003BE
:10116C00302B17D0302B04D8102B09D0202B0CD0BF
:10117C0024E0502B18D0602B1BD0402B0FD01DE03F
:10118C007B6A43F008037B6218E07B6A43F0100330
:10119C007B6213E07B6A43F020037B620EE07B6A88
:1011AC0043F040037B6209E07B6A43F080037B627F
:1011BC0004E07B6A43F480737B6200BF7B681B682E
:1011CC009A697B681B6822F070029A617B681B68C5
:1011DC0004225A607B6A002B08D07B685A6A7B6AAF
:1011EC001A437B685A62786800F070F800BF2837A1
:1011FC00BD4680BD80B483B000AF786000BF0C37B3
:10120C00BD4680BC704780B483B000AF786000BF2F
:10121C000C37BD4680BC704780B483B000AF78609B
:10122C0000BF0C37BD4680BC704780B483B000AFA4
:10123C00786000BF0C37BD4680BC704780B483B06B
:10124C0000AF786000BF0C37BD4680BC704780B4DF
:10125C0083B000AF786000BF0C37BD4680BC7047D0
:10126C0080B483B000AF786000BF0C37BD4680BC43
:10127C00704780B483B000AF786000BF0C37BD46B8
:10128C0080BC704780B483B000AF786000BF0C376F
:10129C00BD4680BC704780B483B000AF786000BF9F
:1012AC000C37BD4680BC704780B483B000AF78600B
:1012BC0000BF0C37BD4680BC704780B483B000AF14
:1012CC00786000BF0C37BD4680BC704780B483B0DB
:1012DC0000AF786000BF0C37BD4680BC7047000083
:1012EC0080B485B000AF78607B6803F00703FB60C7
:1012FC000C4BDB68BB60BA684FF6FF031340BB6056
:10130C00FB681A02BB68134343F0BF6343F400331A
:10131C00BB60044ABB68D36000BF1437BD4680BCB9
:10132C00704700BF00ED00E080B400AF044BDB68F9
:10133C001B0A03F007031846BD4680BC704700BF6C
:10134C0000ED00E080B483B000AF0346FB7197F969
:10135C000730002B0BDBFB7903F01F02064997F9D2
:10136C0007305B09012000FA02F241F8232000BF8C
:10137C000C37BD4680BC704700E100E080B483B000
:10138C0000AF03463960FB7197F90730002B0ADB7D
:10139C003B68DAB20C4997F907301201D2B20B4410
:1013AC0083F800230AE03B68DAB20849FB7903F0C2
:1013BC000F03043B1201D2B20B441A7600BF0C3758
:1013CC00BD4680BC704700BF00E100E000ED00E0CE
:1013DC0080B489B000AFF860B9607A60FB6803F044
:1013EC000703FB61FB69C3F10703042B28BF04232C
:1013FC00BB61FB690433062B02D9FB69033B00E09C
:10140C0000237B614FF0FF32BB6902FA03F3DA432E
:10141C00BB681A407B699A404FF0FF317B6901FA37
:10142C0003F3D9437B680B40134318462437BD465E
:10143C0080BC704780B582B000AF78607B68013BA0
:10144C00B3F1807F01D301230FE00A4A7B68013B93
:10145C0053600F214FF0FF30FFF790FF054B002238
:10146C009A60044B07221A60002318460837BD46C1
:10147C0080BD00BF10E000E080B582B000AF7860A6
:10148C007868FFF72DFF00BF0837BD4680BD80B5DB
:10149C0086B000AF0346B9607A60FB7300237B61B2
:1014AC00FFF742FF78617A68B9687869FFF790FFB7
:1014BC00024697F90F3011461846FFF75FFF00BF41
:1014CC001837BD4680BD80B582B000AF0346FB71B6
:1014DC0097F907301846FFF735FF00BF0837BD46B0
:1014EC0080BD80B582B000AF78607868FFF7A2FF4E
:1014FC00034618460837BD4680BD000080B48BB04B
:10150C0000AF7860396000237B6200233B6227E1E7
:10151C0001227B6A02FA03F3FB613B681B68FA69E0
:10152C001340BB61BA69FB699A4240F016813B6873
:10153C005B68122B34D0122B0DD8022B2BD0022B24
:10154C0004D8002B31D0012B1CD048E0032B43D006
:10155C00112B1BD043E0894A934226D0874A9342F1
:10156C0006D8874A934220D0864A93421DD036E053
:10157C00854A934219D0854A934216D0844A9342A5
:10158C0013D02CE03B68DB683B6228E03B68DB68EF
:10159C0004333B6223E03B68DB6808333B621EE0AC
:1015AC003B68DB680C333B6219E03B689B68002BA3
:1015BC0002D104233B6212E03B689B68012B05D1EE
:1015CC0008233B627B68FA691A6108E008233B62D6
:1015DC007B68FA695A6102E000233B6200BFBB6979
:1015EC00FF2B01D87B6801E07B6804337B61BB690E
:1015FC00FF2B02D87B6A9B0002E07B6A083B9B00B6
:10160C003B617B691A680F213B6901FA03F3DB43E9
:10161C001A40396A3B6901FA03F31A437B691A6071
:10162C003B685B6803F08053002B00F09680594BAD
:10163C009B69584A43F001039361564B9B6903F035
:10164C000103BB60BB68544A7B6A9B08023352F8A7
:10165C002330FB607B6A03F003039B000F2202FA2A
:10166C0003F3DB43FA681340FB607B684B4A9342FD
:10167C0013D07B684A4A93420DD07B68494A934207
:10168C0007D07B68484A934201D1032306E0042328
:10169C0004E0022302E0012300E000237A6A02F056
:1016AC00030292009340FA681343FB603A497B6A49
:1016BC009B080233FA6841F823203B685B6803F40B
:1016CC008033002B06D0394B1A683849BB69134359
:1016DC000B6006E0354B1A68BB69DB43334913409A
:1016EC000B603B685B6803F40033002B06D02F4B78
:1016FC005A682E49BB6913434B6006E02B4B5A6862
:10170C00BB69DB43294913404B603B685B6803F4BE
:10171C008013002B06D0254B9A682449BB691343D0
:10172C008B6006E0214B9A68BB69DB431F49134071
:10173C008B603B685B6803F40013002B06D01B4BDB
:10174C00DA681A49BB691343CB6006E0174BDA68B9
:10175C00BB69DB4315491340CB607B6A01337B6269
:10176C003B681A687B6A22FA03F3002B7FF4D0AE35
:10177C0000BF2C37BD4680BC704700BF0000211055
:10178C000000111000001210000031100000321087
:10179C00000022100010024000000140000801402F
:1017AC00000C0140001001400014014000040140F5
:1017BC0080B485B000AF78600B467B807B689A68FC
:1017CC007B881340002B02D00123FB7301E0002324
:1017DC00FB73FB7B18461437BD4680BC704780B446
:1017EC0083B000AF78600B467B8013467B707B78B0
:1017FC00002B03D07A887B681A6103E07B881A047B
:10180C007B681A6100BF0C37BD4680BC704780B442
:10181C0085B000AF78600B467B807B68DB68FB6033
:10182C007A88FB6813401A04FB68D9437B880B4009
:10183C001A437B681A6100BF1437BD4680BC7047E1
:10184C00F0B58BB006AF78607B68002B01D101231B
:10185C00FDE07B6893F8A932DBB2002B06D17B68E4
:10186C00002283F8A822786805F0BCFD7B6803226F
:10187C0083F8A9227B681B68184602F02BF87B685A
:10188C001B683B607E686D4606F110040FCC0FC5DB
:10189C0023682B60331D0ECB386801F0F5FF03462F
:1018AC00002B05D07B68022283F8A9220123CEE00D
:1018BC007B681B680021184602F026F80023FB7396
:1018CC004CE0FB7B79685A1C13469B001344DB00ED
:1018DC000B44013301221A70FB7B79685A1C1346A6
:1018EC009B001344DB000B44FA7B1A70FA7BFB7BE6
:1018FC0098B2796813469B001344DB000B443633D3
:10190C0002461A80FB7B79685A1C13469B001344D1
:10191C00DB000B44033300221A70FA7B7968134600
:10192C009B001344DB000B44383300221A60FA7B13
:10193C00796813469B001344DB000B443C330022B4
:10194C001A60FA7B796813469B001344DB000B4446
:10195C00403300221A60FB7B0133FB73FA7B7B68FC
:10196C005B689A42ADD30023FB7344E0FA7B796841
:10197C0013469B001344DB000B4403F26913002253
:10198C001A70FA7B796813469B001344DB000B44F6
:10199C0003F5B473FA7B1A70FA7B796813469B00D3
:1019AC001344DB000B4403F26B1300221A70FA7B16
:1019BC00796813469B001344DB000B4403F5BC739E
:1019CC0000221A60FA7B796813469B001344DB00F3
:1019DC000B4403F5BE7300221A60FA7B7968134638
:1019EC009B001344DB000B4403F5C07300221A6008
:1019FC00FB7B0133FB73FA7B7B685B689A42B5D344
:101A0C007B681B683B607E686D4606F110040FCC4A
:101A1C000FC523682B60331D0ECB386801F080FF97
:101A2C000346002B05D07B68022283F8A9220123F0
:101A3C000DE07B68002283F824207B68012283F868
:101A4C00A9227B681B68184603F01AFF002318466E
:101A5C001437BD46F0BD80B582B000AF78607B68AE
:101A6C0093F8A832012B01D1022316E07B680122E6
:101A7C0083F8A8227B681B68184601F015FF01212A
:101A8C00786805F022FF7B681B68184603F0EEFEB1
:101A9C007B68002283F8A822002318460837BD462D
:101AAC0080BD80B588B000AF78607B681B68184635
:101ABC0003F0F0FE034603F40043B3F5004F02D1EC
:101ACC00786800F061FB7B681B68184603F0E2FE47
:101ADC00034603F48063B3F5806F12D17B681B68F7
:101AEC00B3F844309AB27B681B6822F4806292B2DD
:101AFC00A3F84420786805F0F0FC0021786800F029
:101B0C0025F97B681B68184603F0C4FE034603F4F2
:101B1C008043B3F5804F0BD17B681B68B3F844301E
:101B2C009AB27B681B6822F4804292B2A3F84420DC
:101B3C007B681B68184603F0ADFE034603F40053A4
:101B4C00B3F5005F0BD17B681B68B3F844309AB2D5
:101B5C007B681B6822F4005292B2A3F844207B6885
:101B6C001B68184603F096FE034603F48053B3F546
:101B7C00805F26D17B681B68B3F840309AB27B68D3
:101B8C001B6822F0040292B2A3F840207B681B6809
:101B9C00B3F840309AB27B681B6822F0080292B20C
:101BAC00A3F84020786805F0D1FC7B681B68B3F87B
:101BBC0044309AB27B681B6822F4805292B2A3F82C
:101BCC0044207B681B68184603F064FE034603F44C
:101BDC000063B3F5006F40F084800023FB7711E0C5
:101BEC007B681B681A46FB7F9B001A44FB7F12889C
:101BFC0092B25B0007F120010B4423F8142CFB7FFD
:101C0C000133FB77FB7F072BEAD97B681B68B3F8A2
:101C1C0040309AB27B681B6842F0010292B2A3F882
:101C2C0040207B681B68B3F840309AB27B681B6815
:101C3C0022F0010292B2A3F8402000BF7B681B681F
:101C4C00B3F844309BB203F48063002BF6D07B686E
:101C5C001B68B3F844309AB27B681B6822F480622C
:101C6C0092B2A3F844200023FB7710E0FB7F7A6844
:101C7C0012681146FA7F92000A445B0007F12001BA
:101C8C000B4433F8143C1380FB7F0133FB77FB7F51
:101C9C00072BEBD97B681B68B3F840309AB27B6892
:101CAC001B6842F0080292B2A3F840207B681B68C4
:101CBC00B3F844309AB27B681B6822F4006292B28B
:101CCC00A3F844207B681B68B3F840309AB27B6859
:101CDC001B6842F0040292B2A3F84020786805F029
:101CEC001BFC7B681B68184603F0D4FD034603F409
:101CFC000073B3F5007F0ED17B681B68B3F84430DA
:101D0C009AB27B681B6822F4007292B2A3F844204A
:101D1C00786805F0D4FB7B681B68184603F0BAFDA5
:101D2C00034603F48073B3F5807F0BD17B681B688B
:101D3C00B3F844309AB27B681B6822F4807292B27A
:101D4C00A3F8442000BF2037BD4680BD80B582B0CB
:101D5C0000AF78600B46FB707B6893F8A832012BC0
:101D6C0001D1022313E07B68012283F8A8227B684F
:101D7C00FA7883F824207B681B68FA781146184699
:101D8C0003F061FD7B68002283F8A822002318462B
:101D9C000837BD4680BD80B584B000AF786008467A
:101DAC0011461A460346FB700B463B801346BB702C
:101DBC000023FB7297F90330002B0EDAFB7803F04B
:101DCC0007035A1C13469B001344DB007A68134428
:101DDC00FB60FB6801225A700EE0FB7803F00702EF
:101DEC0013469B001344DB0003F5B4737A68134469
:101DFC00FB60FB6800225A70FB7803F00703DAB231
:101E0C00FB681A703A88FB681A61FB68BA78DA705A
:101E1C00FB685B78002B04D0FB681B789AB2FB68DC
:101E2C00DA81BB78022B02D1FB6800221A717B6825
:101E3C0093F8A832012B01D102230EE07B6801221A
:101E4C0083F8A8227B681B68F968184601F088FDA6
:101E5C007B68002283F8A822FB7A18461037BD460F
:101E6C0080BD80B584B000AF78600B46FB7097F9ED
:101E7C000330002B0EDAFB7803F007035A1C1346D1
:101E8C009B001344DB007A681344FB60FB6801225F
:101E9C005A700EE0FB7803F0070213469B001344C4
:101EAC00DB0003F5B4737A681344FB60FB68002213
:101EBC005A70FB7803F00703DAB2FB681A707B6880
:101ECC0093F8A832012B01D102230EE07B6801228A
:101EDC0083F8A8227B681B68F968184602F0AAF8F8
:101EEC007B68002283F8A822002318461037BD46D1
:101EFC0080BD80B586B000AFF8607A603B600B4661
:101F0C00FB72FB7A03F0070213469B001344DB00C1
:101F1C0003F5B473FA6813447B617B697A685A6180
:101F2C007B693A689A617B690022DA617B690022DD
:101F3C005A70FB7A03F00703DAB27B691A70FB7AEA
:101F4C0003F00703002B06D1FB681B687969184660
:101F5C0002F05CFA05E0FB681B687969184602F030
:101F6C0055FA002318461837BD4680BD80B483B09F
:101F7C0000AF78600B46FB70FB7803F007027968C2
:101F8C0013469B001344DB000B4403F5C2731B6820
:101F9C0018460C37BD4680BC704780B586B000AF84
:101FAC00F8607A603B600B46FB72FB7A03F0070328
:101FBC005A1C13469B001344DB00FA6813447B61E4
:101FCC007B697A685A617B693A689A617B690122FC
:101FDC0083F824207B693A681A627B690022DA61F3
:101FEC007B6901225A70FB7A03F00703DAB27B6932
:101FFC001A70FB7A03F00703002B06D1FB681B68F1
:10200C007969184602F002FA05E0FB681B687969E9
:10201C00184602F0FBF9002318461837BD4680BD60
:10202C0080B584B000AF78600B46FB70FB7803F092
:10203C0007027B685B689A4201D901234CE097F94F
:10204C000330002B0EDAFB7803F007035A1C1346FF
:10205C009B001344DB007A681344FB60FB6801228D
:10206C005A700CE0FA7813469B001344DB0003F51E
:10207C00B4737A681344FB60FB6800225A70FB68E7
:10208C0001229A70FB7803F00703DAB2FB681A702E
:10209C007B6893F8A832012B01D102231CE07B68EA
:1020AC00012283F8A8227B681B68F968184603F0A4
:1020BC00CDFAFB7803F00703002B08D17B681A6874
:1020CC007B6803F52C731946104603F0F2FB7B6812
:1020DC00002283F8A822002318461037BD4680BD85
:1020EC0080B584B000AF78600B46FB70FB7803F0D2
:1020FC000F027B685B689A4201D9012340E097F993
:10210C000330002B0EDAFB7803F007035A1C13463E
:10211C009B001344DB007A681344FB60FB680122CC
:10212C005A700EE0FB7803F0070213469B00134431
:10213C00DB0003F5B4737A681344FB60FB68002280
:10214C005A70FB6800229A70FB7803F00703DAB22E
:10215C00FB681A707B6893F8A832012B01D102231B
:10216C000EE07B68012283F8A8227B681B68F96863
:10217C00184603F0BBFA7B68002283F8A8220023E0
:10218C0018461037BD4680BD80B58EB000AF786064
:10219C00DFE27B681B68B3F84430FB85FB8DDBB258
:1021AC0003F00F0387F82D3097F82D30002B40F0FB
:1021BC005881FB8D03F01003002B52D17B681B68F8
:1021CC001B889BB223F4E14323F07003FB817B68F3
:1021DC001A68FB896FEA43436FEA53439BB213803F
:1021EC007B6828337B627B681B68B3F850309BB2EA
:1021FC001A467B6A1B78DB00134402335B007A6857
:10220C001268134403F580631B88C3F309027B6ACD
:10221C00DA617B6A5A697B6ADB691A447B6A5A61A8
:10222C000021786805F031F97B6893F82430DBB233
:10223C00002B00F08E827B6A9B69002B40F0898218
:10224C007B6893F82430DBB263F07F03DAB27B68EF
:10225C001B6892B2A3F84C207B68002283F82420E0
:10226C0077E27B6803F5B4737B627B681B681B8821
:10227C007B857B8D03F40063002B34D07B681B685B
:10228C00B3F850309BB21A467B6A1B78DB001344C0
:10229C0006335B007A681268134403F580631B886D
:1022AC00C3F309027B6ADA617B6818687B6803F503
:1022BC002C717B6ADA887B6ADB699BB203F048FB82
:1022CC007B681B681B889AB240F68F7313403B8265
:1022DC007B681B683A8A42F0800292B21A80786856
:1022EC0005F0A6F835E2B7F92A30002B80F23182DE
:1022FC007B681B681B889AB240F68F731340BB83B4
:10230C007B681B68BA8B42F0800292B21A807B68A1
:10231C001B68B3F850309BB21A467B6A1B78DB0003
:10232C00134406335B007A681268134403F5806328
:10233C001B88C3F309027B6ADA617B6ADB69002BB9
:10234C0019D07B6A5B69002B15D07B6818687B6A97
:10235C0059697B6ADA887B6ADB699BB203F0F8FA0D
:10236C007B6A5A697B6ADB691A447B6A5A61002171
:10237C00786805F06FF87B681B68BB617B681B682D
:10238C00B3F850309BB21A46BB691344BB61BB69AE
:10239C0003F20C437B617B6A1B69002B12D17B69B6
:1023AC001B889BB223F4F8439AB27B691A807B6931
:1023BC001B889BB26FEA43436FEA53439AB27B6923
:1023CC001A802FE07B6A1B693E2B13D87B6A1B6932
:1023DC005B083B637B6A1B6903F00103002B02D093
:1023EC003B6B01333B633B6B9BB29B029AB27B69A9
:1023FC001A8017E07B6A1B695B093B637B6A1B696C
:10240C0003F01F03002B02D13B6B013B3B633B6B87
:10241C009BB29B029BB26FEA43436FEA53439AB25F
:10242C007B691A807B681B681B889BB223F48043F2
:10243C0023F070037B827B8A83F480537B827B8ABC
:10244C0083F400537B827B681A687B8A43F07F435A
:10245C0043F47F0343F4004343F080039BB21380A7
:10246C0077E17B681B681A4697F82D309B00134464
:10247C001B887B85B7F92A30002B80F2EA807B68B9
:10248C001B681A4697F82D309B0013441B889AB290
:10249C0040F68F7313403B857B681B681A4697F890
:1024AC002D309B0013443A8D42F0800292B21A8078
:1024BC0097F82D2013469B001344DB0003F5B473EF
:1024CC007A6813447B627B6A1B7B002B22D17B686E
:1024DC001B68B3F850309BB21A467B6A1B78DB0042
:1024EC00134406335B007A681268134403F5806367
:1024FC001B88C3F30903FB86FB8E002B00F087803F
:10250C007B6818687B6A59697B6ADA88FB8E03F0F2
:10251C001FFA7CE07B6ADB78022B08D17B8D1A4694
:10252C00796A786800F023F90346FB866FE07B68D4
:10253C001B681A467B6A1B789B0013441B889BB252
:10254C0023F4E04323F070037B847B681B681A46FA
:10255C007B6A1B789B001A447B8C43F07F4343F4CB
:10256C007F0343F4004343F0C0039BB213807B68AA
:10257C001B681A467B6A1B789B0013441B889BB212
:10258C0003F48043002B21D07B681B68B3F85030D8
:10259C009BB21A467B6A1B78DB00134402335B0048
:1025AC007A681268134403F580631B88C3F309032C
:1025BC00FB86FB8E002B2AD07B6818687B6A5969D6
:1025CC007B6A1A89FB8E03F0C3F920E07B681B68D9
:1025DC00B3F850309BB21A467B6A1B78DB0013446D
:1025EC0006335B007A681268134403F580631B881A
:1025FC00C3F30903FB86FB8E002B08D07B6818689D
:10260C007B6A59697B6A5A89FB8E03F0A1F97B6A54
:10261C00DA69FB8E1A447B6ADA617B6A5A69FB8E33
:10262C001A447B6A5A617B6A9B69002B04D0FA8E30
:10263C007B6A1B699A4206D27B6A1B7819467868BA
:10264C0004F008FF05E07B681B68796A184601F006
:10265C00DDFE7B8D03F08003002B7AD097F82D30B4
:10266C005A1C13469B001344DB007A6813447B62AC
:10267C007B681B681A4697F82D309B0013441B8807
:10268C009BB223F4E14323F070033B847B681B680B
:10269C001A4697F82D309B001A443B8C6FEA434343
:1026AC006FEA53439BB213807B6ADB78022B08D111
:1026BC007B6ADB78022B46D17B8D03F48073002B75
:1026CC0041D17B681B68B3F850309BB21A467B6AC9
:1026DC001B78DB00134402335B007A6812681344E6
:1026EC0003F580631B88C3F30903FB837B6A9A6938
:1026FC00FB8B9A4206D97B6A9A69FB8BD21A7B6A4E
:10270C009A6102E07B6A00229A617B6A9B69002BCA
:10271C0006D17B6A1B781946786804F0B6FE18E07F
:10272C007B6A5A69FB8B1A447B6A5A617B6ADA6949
:10273C00FB8B1A447B6ADA617B681B68796A1846E2
:10274C0001F064FE05E07B8D1A46796A786800F02A
:10275C001BF97B681B68B3F844309BB21BB2002B8F
:10276C00FFF617AD002318463837BD4680BD80B53F
:10277C0088B000AFF860B9601346FB80FB8803F4A7
:10278C008043002B7ED0FB681B68B3F850309BB2A3
:10279C001A46BB681B78DB00134402335B00FA68F3
:1027AC001268134403F580631B88C3F309037B830E
:1027BC00BB689A697B8B9A4206D3BB689A697B8B00
:1027CC00D21ABB689A6102E0BB6800229A61BB68AE
:1027DC009B69002B23D1FB681B681A46BB681B78CE
:1027EC009B0013441B889BB223F4804323F070039B
:1027FC003B833B8B83F400533B83FB681B681A467B
:10280C00BB681B789B001A443B8B43F07F4343F41B
:10281C007F0343F4004343F080039BB21380FB8897
:10282C0003F04003002B1FD0FB681B681A46BB68E3
:10283C001B789B0013441B889BB223F4E04323F0CA
:10284C007003FB82FB681B681A46BB681B789B00F5
:10285C001A44FB8A43F07F4343F47F0343F4004361
:10286C0043F0C0039BB213807B8B002B00F087805E
:10287C00FB681868BB685969BB681A897B8B03F0C5
:10288C0067F87CE0FB681B68B3F850309BB21A46C3
:10289C00BB681B78DB00134406335B00FA681268D4
:1028AC00134403F580631B88C3F309037B83BB6864
:1028BC009A697B8B9A4206D3BB689A697B8BD21A36
:1028CC00BB689A6102E0BB6800229A61BB689B6995
:1028DC00002B23D1FB681B681A46BB681B789B0036
:1028EC0013441B889BB223F4804323F07003FB83B7
:1028FC00FB8B83F40053FB83FB681B681A46BB6895
:10290C001B789B001A44FB8B43F07F4343F47F03FB
:10291C0043F4004343F080039BB21380FB8803F025
:10292C004003002B1FD1FB681B681A46BB681B7841
:10293C009B0013441B889BB223F4E04323F07003E9
:10294C00BB83FB681B681A46BB681B789B001A4448
:10295C00BB8B43F07F4343F47F0343F4004343F0CA
:10296C00C0039BB213807B8B002B08D0FB681868CC
:10297C00BB685969BB685A897B8B02F0E9FF7B8B7A
:10298C0018462037BD4680BD80B592B000AFF860C8
:10299C00B9601346FB80FB8803F04003002B00F06A
:1029AC003281FB681B68B3F850309BB21A46BB6887
:1029BC001B78DB00134402335B00FA681268134483
:1029CC0003F580631B88C3F30903FB85BB689A6915
:1029DC00FB8D9A4206D9BB689A69FB8DD21ABB68EB
:1029EC009A6102E0BB6800229A61BB689B69002B6C
:1029FC002CD1BB681B781946F86804F046FDFB889F
:102A0C0003F48043002B00F02F82FB681B681A46EE
:102A1C00BB681B789B0013441B889BB223F4E043D8
:102A2C0023F070037B82FB681B681A46BB681B781B
:102A3C009B001A447B8A43F07F4343F47F0343F4A7
:102A4C00404343F080039BB213800DE2FB8803F4F8
:102A5C008043002B1FD0FB681B681A46BB681B7891
:102A6C009B0013441B889BB223F4E04323F07003B8
:102A7C00BB84FB681B681A46BB681B789B001A4416
:102A8C00BB8C43F07F4343F47F0343F4404343F058
:102A9C0080039BB21380BB6893F82430012B40F069
:102AAC00E381BB685A69FB8D1A44BB685A61BB68E9
:102ABC00DA69FB8D1A44BB68DA61BB681A6ABB68B9
:102ACC001B699A4209D3BB681B69BB63BB681A6A52
:102ADC00BB6BD21ABB681A6214E0BB681B6A002B72
:102AEC0006D1FB8DBB63BB68002283F8242009E070
:102AFC00BB68002283F82420BB681B6ABB63BB68DD
:102B0C0000221A62BB685B78002B55D1FB681B68EE
:102B1C00BB61FB681B68B3F850309BB21A46BB69AB
:102B2C001344BB61BB681B781A01BB69134403F2E5
:102B3C0004437B61BB6B002B12D17B691B889BB25E
:102B4C0023F4F8439AB27B691A807B691B889BB289
:102B5C006FEA43436FEA53439AB27B691A8047E0AA
:102B6C00BB6B3E2B11D8BB6B5B08BB62BB6B03F022
:102B7C000103002B02D0BB6A0133BB62BB6A9BB260
:102B8C009B029AB27B691A8032E0BB6B5B09BB6219
:102B9C00BB6B03F01F03002B02D1BB6A013BBB6272
:102BAC00BB6A9BB29B029BB26FEA43436FEA5343EF
:102BBC009AB27B691A801BE0BB685B78012B17D13A
:102BCC00FB681B683B62FB681B68B3F850309BB218
:102BDC001A463B6A13443B62BB681B781A013B6A7A
:102BEC00134403F20443FB61BB6B9AB2FB691A807A
:102BFC00FB681868BB685969BB681A89BB6B9BB2C8
:102C0C0002F062FE30E1FB681B68B3F850309BB2F7
:102C1C001A46BB681B78DB00134406335B00FA686A
:102C2C001268134403F580631B88C3F30903FB8507
:102C3C00BB689A69FB8D9A4206D3BB689A69FB8D77
:102C4C00D21ABB689A6102E0BB6800229A61BB6829
:102C5C009B69002B2CD1BB681B781946F86804F0D3
:102C6C0014FCFB8803F48043002B40F0FD80FB68D0
:102C7C001B681A46BB681B789B0013441B889BB2CD
:102C8C0023F4E04323F07003FB84FB681B681A46B3
:102C9C00BB681B789B001A44FB8C43F07F4343F4C6
:102CAC007F0343F4404343F080039BB21380DBE08B
:102CBC00FB8803F48043002B1FD1FB681B681A466A
:102CCC00BB681B789B0013441B889BB223F4E04326
:102CDC0023F07003BB85FB681B681A46BB681B7826
:102CEC009B001A44BB8D43F07F4343F47F0343F4B2
:102CFC00404343F080039BB21380BB6893F82430AD
:102D0C00012B40F0B180BB685A69FB8D1A44BB683B
:102D1C005A61BB68DA69FB8D1A44BB68DA61BB681F
:102D2C001A6ABB681B699A4209D3BB681B69BB63EF
:102D3C00BB681A6ABB6BD21ABB681A6214E0BB6818
:102D4C001B6A002B06D1FB8DBB63BB68002283F88A
:102D5C00242009E0BB681B6ABB63BB6800221A62B3
:102D6C00BB68002283F82420FB681B687B63BB686C
:102D7C005B78002B55D1FB681B687B64FB681B6878
:102D8C00B3F850309BB21A467B6C13447B64BB681F
:102D9C001B781A017B6C134403F20C433B64BB6B32
:102DAC00002B12D13B6C1B889BB223F4F8439AB2D4
:102DBC003B6C1A803B6C1B889BB26FEA43436FEAF7
:102DCC0053439AB23B6C1A8044E0BB6B3E2B11D838
:102DDC00BB6B5B08FB63BB6B03F00103002B02D0E6
:102DEC00FB6B0133FB63FB6B9BB29B029AB23B6C9C
:102DFC001A802FE0BB6B5B09FB63BB6B03F01F03FB
:102E0C00002B02D1FB6B013BFB63FB6B9BB29B0268
:102E1C009BB26FEA43436FEA53439AB23B6C1A80FE
:102E2C0018E0BB685B78012B14D1FB681B68B3F806
:102E3C0050309BB21A467B6B13447B63BB681B7888
:102E4C001A017B6B134403F20C433B63BB6B9AB2CA
:102E5C003B6B1A80FB681868BB685969BB685A8958
:102E6C00BB6B9BB202F030FDFB681B681A46BB685B
:102E7C001B789B0013441B889BB223F4E04323F084
:102E8C0040033B823B8A83F010033B823B8A83F0F6
:102E9C0020033B82FB681B681A46BB681B789B00AF
:102EAC001A443B8A43F07F4343F47F0343F40043CB
:102EBC0043F080039BB21380002318464837BD466D
:102ECC0080BD80B487B000AFF8607B600B467B811F
:102EDC0013463B817B8903F080039BB2002B0BD004
:102EEC007B8903F007035A1C13469B001344DB0039
:102EFC00FA6813447B6109E07A8913469B001344FA
:102F0C00DB0003F5B473FA6813447B613B89002B37
:102F1C0007D17B6900221A737B689AB27B69DA80CD
:102F2C000BE07B6901221A737B689AB27B691A8168
:102F3C007B681B0C9AB27B695A81002318461C379C
:102F4C00BD4680BC7047000080B586B000AF78608D
:102F5C007B68002B01D101236CE27B681B6803F0BA
:102F6C000103002B00F08780924B5B6803F00C038D
:102F7C00042B0CD08F4B5B6803F00C03082B12D185
:102F8C008C4B5B6803F48033B3F5803F0BD1894BDA
:102F9C001B6803F40033002B6CD07B685B68002B40
:102FAC0068D1012346E27B685B68B3F5803F06D1AC
:102FBC00804B1B687F4A43F4803313602EE07B68A0
:102FCC005B68002B0CD17B4B1B687A4A23F4803353
:102FDC001360784B1B68774A23F4802313601DE041
:102FEC007B685B68B3F5A02F0CD1724B1B68714AE0
:102FFC0043F4802313606F4B1B686E4A43F4803399
:10300C0013600BE06B4B1B686A4A23F4803313602C
:10301C00684B1B68674A23F4802313607B685B68EA
:10302C00002B13D0FDF702FC386108E0FDF7FEFB26
:10303C0002463B69D31A642B01D90323FAE15D4B99
:10304C001B6803F40033002BF0D014E0FDF7EEFB0B
:10305C00386108E0FDF7EAFB02463B69D31A642BA2
:10306C0001D90323E6E1534B1B6803F40033002B17
:10307C00F0D100E000BF7B681B6803F00203002B5B
:10308C0063D04C4B5B6803F00C03002B0BD0494B0B
:10309C005B6803F00C03082B1CD1464B5B6803F4F4
:1030AC008033002B16D1434B1B6803F00203002B1B
:1030BC0005D07B681B69012B01D00123BAE13D4B84
:1030CC001B6823F0F8027B685B69DB00394913430A
:1030DC000B603AE07B681B69002B20D0364B012239
:1030EC001A60FDF7A3FB386108E0FDF79FFB024671
:1030FC003B69D31A022B01D903239BE12D4B1B688F
:10310C0003F00203002BF0D02A4B1B6823F0F802CB
:10311C007B685B69DB00274913430B6015E0264B8A
:10312C0000221A60FDF782FB386108E0FDF77EFB98
:10313C0002463B69D31A022B01D903237AE11D4BBA
:10314C001B6803F00203002BF0D17B681B6803F0B3
:10315C000803002B3AD07B689B69002B19D0174BC6
:10316C0001221A60FDF762FB386108E0FDF75EFB97
:10317C0002463B69D31A022B01D903235AE10D4BAA
:10318C005B6A03F00203002BF0D0012000F0A8FAD8
:10319C001CE00A4B00221A60FDF748FB38610FE077
:1031AC00FDF744FB02463B69D31A022B08D90323D3
:1031BC0040E100BF00100240000042428004424245
:1031CC009E4B5B6A03F00203002BE9D17B681B6802
:1031DC0003F00403002B00F0A6800023FB75974B33
:1031EC00DB6903F08053002B0DD1944BDB69934AC0
:1031FC0043F08053D361914BDB6903F08053BB6088
:10320C00BB680123FB758E4B1B6803F48073002B8A
:10321C0018D18B4B1B688A4A43F480731360FDF7FB
:10322C0005FB386108E0FDF701FB02463B69D31A48
:10323C00642B01D90323FDE0814B1B6803F48073DD
:10324C00002BF0D07B68DB68012B06D17B4B1B6A13
:10325C007A4A43F0010313622DE07B68DB68002B94
:10326C000CD1764B1B6A754A23F001031362734B26
:10327C001B6A724A23F0040313621CE07B68DB6850
:10328C00052B0CD16D4B1B6A6C4A43F00403136283
:10329C006A4B1B6A694A43F0010313620BE0674BEC
:1032AC001B6A664A23F001031362644B1B6A634A70
:1032BC0023F0040313627B68DB68002B15D0FDF749
:1032CC00B5FA38610AE0FDF7B1FA02463B69D31A48
:1032DC0041F28832934201D90323ABE0574B1B6A6E
:1032EC0003F00203002BEED014E0FDF79FFA3861D7
:1032FC000AE0FDF79BFA02463B69D31A41F2883289
:10330C00934201D9032395E04C4B1B6A03F0020353
:10331C00002BEED1FB7D012B05D1484BDB69474AD5
:10332C0023F08053D3617B68DB69002B00F0818034
:10333C00424B5B6803F00C03082B61D07B68DB69A4
:10334C00022B46D13F4B00221A60FDF76FFA386111
:10335C0008E0FDF76BFA02463B69D31A022B01D940
:10336C00032367E0354B1B6803F00073002BF0D18F
:10337C007B681B6AB3F5803F08D1304B5B6823F444
:10338C0000327B689B682D4913434B602B4B5B6869
:10339C0023F474127B68196A7B685B6A0B432749B8
:1033AC0013434B60274B01221A60FDF73FFA38613B
:1033BC0008E0FDF73BFA02463B69D31A022B01D910
:1033CC00032337E01D4B1B6803F00073002BF0D078
:1033DC002FE01C4B00221A60FDF728FA386108E038
:1033EC00FDF724FA02463B69D31A022B01D90323B9
:1033FC0020E0124B1B6803F00073002BF0D118E097
:10340C007B68DB69012B01D1012313E00B4B5B685B
:10341C00FB60FB6803F480327B681B6A9A4206D11E
:10342C00FB6803F470127B685B6A9A4201D001233B
:10343C0000E0002318461837BD4680BD001002403E
:10344C00007000406000424280B584B000AF7860EC
:10345C0039607B68002B01D10123D0E06A4B1B68DB
:10346C0003F007033A689A4210D9674B1B6823F0A4
:10347C00070265493B6813430B60634B1B6803F001
:10348C0007033A689A4201D00123B8E07B681B68B5
:10349C0003F00203002B20D07B681B6803F00403AD
:1034AC00002B05D0594B5B68584A43F4E0635360DA
:1034BC007B681B6803F00803002B05D0534B5B683B
:1034CC00524A43F460535360504B5B6823F0F00254
:1034DC007B689B684D4913434B607B681B6803F00A
:1034EC000103002B40D07B685B68012B07D1474B55
:1034FC001B6803F40033002B15D101237FE07B689C
:10350C005B68022B07D1414B1B6803F00073002B47
:10351C0009D1012373E03D4B1B6803F00203002B20
:10352C0001D101236BE0394B5B6823F003027B680C
:10353C005B68364913434B60FDF778F9F8600AE095
:10354C00FDF774F90246FB68D31A41F288329342B4
:10355C0001D9032353E02D4B5B6803F00C027B680D
:10356C005B689B009A42EBD1274B1B6803F0070367
:10357C003A689A4210D2244B1B6823F00702224966
:10358C003B6813430B60204B1B6803F007033A683E
:10359C009A4201D0012332E07B681B6803F00403DC
:1035AC00002B08D0194B5B6823F4E0627B68DB6866
:1035BC00164913434B607B681B6803F00803002B10
:1035CC0009D0124B5B6823F460527B681B69DB00EB
:1035DC000E4913434B6000F021F801460B4B5B681E
:1035EC001B0903F00F030A4AD35C21FA03F3094ABF
:1035FC001360094B1B681846FDF7D6F800231846D4
:10360C001037BD4680BD00BF0020024000100240B4
:10361C00107A0008000000200400002090B48AB04A
:10362C0000AF2A4B3C1D0FCB84E80F00284B1B88A6
:10363C003B800023FB610023BB6100237B620023E2
:10364C007B6100233B62234B5B68FB61FB6903F0EE
:10365C000C03042B02D0082B03D02DE01E4B3B6235
:10366C002DE0FB699B0C03F00F0307F128021344B8
:10367C0013F8243C7B61FB6903F48033002B13D0DB
:10368C00144B5B685B0C03F0010307F12802134435
:10369C0013F8283CBB617B690F4A02FB03F2BB6940
:1036AC00B2FBF3F37B6204E07B690C4A02FB03F38D
:1036BC007B627B6A3B6202E0074B3B6200BF3B6A6A
:1036CC0018462837BD4690BC704700BFB479000837
:1036DC00C47900080010024000127A0000093D0075
:1036EC0080B485B000AF78600A4B1B680A4AA2FB15
:1036FC0003235B0A7A6802FB03F3FB6000BFFB68E1
:10370C005A1EFA60002BF9D100BF1437BD4680BC9D
:10371C00704700BF00000020D34D621080B586B00A
:10372C0000AF786000233B610023FB607B681B6863
:10373C0003F00103002B7DD00023FB754F4BDB699D
:10374C0003F08053002B0DD14C4BDB694B4A43F0FB
:10375C008053D361494BDB6903F08053BB60BB687A
:10376C000123FB75464B1B6803F48073002B18D1A7
:10377C00434B1B68424A43F480731360FDF756F8C1
:10378C00386108E0FDF752F802463B69D31A642B06
:10379C0001D903236DE03A4B1B6803F48073002BB3
:1037AC00F0D0364B1B6A03F44073FB60FB68002BB4
:1037BC002ED07B685B6803F44073FA689A4227D07A
:1037CC002E4B1B6A23F44073FB602E4B01221A60B4
:1037DC002C4B00221A60294AFB681362FB6803F029
:1037EC000103002B14D0FDF721F838610AE0FDF736
:1037FC001DF802463B69D31A41F28832934201D933
:10380C00032336E01D4B1B6A03F00203002BEED0A2
:10381C001A4B1B6A23F440727B685B68174913438D
:10382C000B62FB7D012B05D1144BDB69134A23F092
:10383C008053D3617B681B6803F00203002B08D014
:10384C000E4B5B6823F440427B689B680B49134327
:10385C004B607B681B6803F01003002B08D0074BF0
:10386C005B6823F480027B68DB68044913434B607C
:10387C00002318461837BD4680BD00BF001002401B
:10388C00007000404004424284B080B483B000AF6A
:10389C00786007F1140080E80E00002318460C37FE
:1038AC00BD4680BC04B0704780B485B000AF786072
:1038BC007B680022A3F844204FF43F43FB60FB6875
:1038CC009AB27B68A3F84020002318461437BD46F3
:1038DC0080BC704780B485B000AF78604FF43F4334
:1038EC00FB607B68B3F840309AB2FB689BB2DB4359
:1038FC009BB213409AB27B68A3F840200023184671
:10390C001437BD4680BC704780B483B000AF78607C
:10391C000B46FB70002318460C37BD4680BC704725
:10392C0084B080B483B000AF786007F1140080E8F5
:10393C000E007B680122A3F840207B680022A3F8CC
:10394C0040207B680022A3F844207B680022A3F867
:10395C005020002318460C37BD4680BC04B070477D
:10396C0080B49BB000AF78603960002387F8673073
:10397C007A683B681B789B0013441B889BB223F42A
:10398C00EC4323F07003A7F864303B68DB78032B1F
:10399C001FD801A252F823F0B5390008D13900081C
:1039AC00E7390008C3390008B7F8643043F40073F2
:1039BC00A7F8643012E0B7F8643043F4C063A7F89A
:1039CC0064300BE0B7F8643043F48063A7F86430DC
:1039DC0004E0012387F8673000E000BF7A683B6899
:1039EC001B789B001A44B7F8643043F07F4343F4D0
:1039FC007F0343F4004343F080039BB213807A6847
:103A0C003B681B789B0013441B889BB223F4E04358
:103A1C0023F070039AB23B681B789BB21343A7F850
:103A2C005E307A683B681B789B001A44B7F85E30AE
:103A3C0043F07F4343F47F0343F4004343F080039C
:103A4C009BB213803B681B7B002B40F049813B6889
:103A5C005B78002B00F084807B687B617B68B3F81B
:103A6C0050309BB21A467B6913447B613B681B78D0
:103A7C001A017B69134403F580633B613B68DB8867
:103A8C005B089BB25B009AB23B691A807A683B6810
:103A9C001B789B0013441B88FB81FB8903F04003BC
:103AAC00002B1BD07A683B681B789B0013441B8847
:103ABC009BB223F4E04323F07003BB817A683B682C
:103ACC001B789B001A44BB8943F07F4343F47F036C
:103ADC0043F4004343F0C0039BB213803B68DB7894
:103AEC00012B20D07A683B681B789B0013441B8801
:103AFC009BB223F4E04323F040033B813B8983F0EA
:103B0C0020033B817A683B681B789B001A443B89F5
:103B1C0043F07F4343F47F0343F4004343F08003BB
:103B2C009BB213807FE27A683B681B789B0013443E
:103B3C001B889BB223F4E04323F040037B817A681B
:103B4C003B681B789B001A447B8943F07F4343F40A
:103B5C007F0343F4004343F080039BB2138062E283
:103B6C007B68FB627B68B3F850309BB21A46FB6AE9
:103B7C001344FB623B681B781A01FB6A134403F580
:103B8C008163BB623B68DB885B089BB25B009AB2CB
:103B9C00BB6A1A807B687B627B68B3F850309BB23F
:103BAC001A467B6A13447B623B681B781A017B6A5A
:103BBC00134403F20C433B623B681B69002B12D18C
:103BCC003B6A1B889BB223F4F8439AB23B6A1A8077
:103BDC003B6A1B889BB26FEA43436FEA53439AB22A
:103BEC003B6A1A802FE03B681B693E2B13D83B685D
:103BFC001B695B083B663B681B6903F00103002BE8
:103C0C0002D03B6E01333B663B6E9BB29B029AB279
:103C1C003B6A1A8017E03B681B695B093B663B6893
:103C2C001B6903F01F03002B02D13B6E013B3B666B
:103C3C003B6E9BB29B029BB26FEA43436FEA5343CA
:103C4C009AB23B6A1A807A683B681B789B001344D3
:103C5C001B88FB83FB8B03F48043002B1BD07A68FF
:103C6C003B681B789B0013441B889BB223F4E043F6
:103C7C0023F07003BB837A683B681B789B001A4463
:103C8C00BB8B43F07F4343F47F0343F4404343F047
:103C9C0080039BB213807A683B681B789B001344AB
:103CAC001B889BB223F4804323F070037B837B8BB4
:103CBC0083F480537B837B8B83F400537B837A6800
:103CCC003B681B789B001A447B8B43F07F4343F487
:103CDC007F0343F4004343F080039BB21380A2E1C3
:103CEC007A683B681B789B0013441B889BB223F4B7
:103CFC00E04323F07003A7F85C307A683B681B78CC
:103D0C009B001A44B7F85C3043F07F4343F47F03C5
:103D1C0043F4014343F080039BB213807B68BB6583
:103D2C007B68B3F850309BB21A46BB6D1344BB652D
:103D3C003B681B781A01BB6D134403F580637B65EC
:103D4C003B681B895B089BB25B009AB27B6D1A8047
:103D5C007B683B657B68B3F850309BB21A463B6D71
:103D6C0013443B653B681B781A013B6D134403F508
:103D7C008163FB643B685B895B089BB25B009AB216
:103D8C00FB6C1A803B685B78002B40F091807A6862
:103D9C003B681B789B0013441B88BB87BB8F03F4C9
:103DAC008043002B1BD07A683B681B789B00134424
:103DBC001B889BB223F4E04323F070037B877A6863
:103DCC003B681B789B001A447B8F43F07F4343F482
:103DDC007F0343F4404343F080039BB213807A6823
:103DEC003B681B789B0013441B883B873B8F03F07D
:103DFC004003002B1BD07A683B681B789B00134454
:103E0C001B889BB223F4E04323F07003FB867A6893
:103E1C003B681B789B001A44FB8E43F07F4343F4B2
:103E2C007F0343F4004343F0C0039BB213807A68D2
:103E3C003B681B789B0013441B889BB223F4804384
:103E4C0023F07003BB86BB8E83F48053BB86BB8E82
:103E5C0083F40053BB867A683B681B789B001A443A
:103E6C00BB8E43F07F4343F47F0343F4004343F0A2
:103E7C0080039BB213807A683B681B789B001344C9
:103E8C001B889BB223F4E04323F040037B867A68C3
:103E9C003B681B789B001A447B8E43F07F4343F4B2
:103EAC007F0343F4004343F080039BB21380BAE0DA
:103EBC007A683B681B789B0013441B88A7F84A3030
:103ECC00B7F84A3003F48043002B1DD07A683B6866
:103EDC001B789B0013441B889BB223F4E04323F014
:103EEC007003A7F848307A683B681B789B001A442B
:103EFC00B7F8483043F07F4343F47F0343F4404327
:103F0C0043F080039BB213807A683B681B789B005C
:103F1C0013441B88A7F84630B7F8463003F040032B
:103F2C00002B1DD07A683B681B789B0013441B88C0
:103F3C009BB223F4E04323F07003A7F844307A6873
:103F4C003B681B789B001A44B7F8443043F07F431E
:103F5C0043F47F0343F4004343F0C0039BB213804C
:103F6C003B68DB78012B24D07A683B681B789B007C
:103F7C0013441B889BB223F4E04323F04003A7F8BF
:103F8C004030B7F8403083F02003A7F840307A680F
:103F9C003B681B789B001A44B7F8403043F07F43D2
:103FAC0043F47F0343F4004343F080039BB213803C
:103FBC001DE07A683B681B789B0013441B889BB2FE
:103FCC0023F4E04323F04003A7F842307A683B68BF
:103FDC001B789B001A44B7F8423043F07F4343F4FC
:103FEC007F0343F4004343F080039BB213807A6851
:103FFC003B681B789B0013441B889BB223F48043C3
:10400C0023F07003FB877A683B681B789B001A448B
:10401C00FB8F43F07F4343F47F0343F4004343F0AF
:10402C0080039BB2138097F8673018466C37BD46F7
:10403C0080BC704780B48DB000AF786039603B684D
:10404C001B7B002B40F08E803B685B78002B44D0B0
:10405C007A683B681B789B0013441B88BB81BB8927
:10406C0003F04003002B1BD07A683B681B789B0045
:10407C0013441B889BB223F4E04323F070037B8131
:10408C007A683B681B789B001A447B8943F07F431A
:10409C0043F47F0343F4004343F0C0039BB213800B
:1040AC007A683B681B789B0013441B889BB223F4F3
:1040BC00E04323F040033B817A683B681B789B000C
:1040CC001A443B8943F07F4343F47F0343F400439A
:1040DC0043F080039BB2138092E17A683B681B78B3
:1040EC009B0013441B887B827B8A03F48043002B48
:1040FC001BD07A683B681B789B0013441B889BB2CF
:10410C0023F4E04323F070033B827A683B681B780E
:10411C009B001A443B8A43F07F4343F47F0343F4F0
:10412C00404343F080039BB213807A683B681B7852
:10413C009B0013441B889BB223F4804323F0700331
:10414C00FB817A683B681B789B001A44FB8943F01F
:10415C007F4343F47F0343F4004343F080039BB25B
:10416C0013804DE13B685B78002B40F0A5807A68AA
:10417C003B681B789B0013441B883B843B8C03F4EB
:10418C008043002B1BD07A683B681B789B00134440
:10419C001B889BB223F4E04323F07003FB837A6803
:1041AC003B681B789B001A44FB8B43F07F4343F422
:1041BC007F0343F4404343F080039BB213807A683F
:1041CC003B681B789B0013441B88BB83BB8B03F0A1
:1041DC004003002B1BD07A683B681B789B00134470
:1041EC001B889BB223F4E04323F070037B837A6833
:1041FC003B681B789B001A447B8B43F07F4343F452
:10420C007F0343F4004343F0C0039BB213807A68EE
:10421C003B681B789B0013441B889BB223F4E04340
:10422C0023F070033B837A683B681B789B001A442D
:10423C003B8B43F07F4343F47F0343F4004343F051
:10424C00C0039BB213807A683B681B789B001344B5
:10425C001B889BB223F4804323F07003FB827A68A3
:10426C003B681B789B001A44FB8A43F07F4343F462
:10427C007F0343F4004343F080039BB213807A68BE
:10428C003B681B789B0013441B889BB223F4E043D0
:10429C0023F04003BB827A683B681B789B001A446E
:1042AC00BB8A43F07F4343F47F0343F4004343F062
:1042BC0080039BB21380A3E07A683B681B789B0059
:1042CC0013441B88FB85FB8D03F48043002B1BD010
:1042DC007A683B681B789B0013441B889BB223F4C1
:1042EC00E04323F07003BB857A683B681B789B0026
:1042FC001A44BB8D43F07F4343F47F0343F44043A4
:10430C0043F080039BB213807A683B681B789B0058
:10431C0013441B887B857B8D03F04003002B1BD043
:10432C007A683B681B789B0013441B889BB223F470
:10433C00E04323F070033B857A683B681B789B0055
:10434C001A443B8D43F07F4343F47F0343F4004313
:10435C0043F0C0039BB213807A683B681B789B00C8
:10436C0013441B889BB223F4E04323F07003FB84BB
:10437C007A683B681B789B001A44FB8C43F07F43A4
:10438C0043F47F0343F4404343F080039BB2138018
:10439C007A683B681B789B0013441B889BB223F400
:1043AC00E04323F04003BB847A683B681B789B0096
:1043BC001A44BB8C43F07F4343F47F0343F4004324
:1043CC0043F080039BB213807A683B681B789B0098
:1043DC0013441B889BB223F4804323F070037B842B
:1043EC007A683B681B789B001A447B8C43F07F43B4
:1043FC0043F47F0343F4004343F080039BB21380E8
:10440C00002318463437BD4680BC704780B5C4B015
:10441C0000AF3B1D18603B4619603B461B685B7840
:10442C00012B40F057853B461B689A693B461B683D
:10443C001B699A4205D93B461B681B69C7F80C31AE
:10444C0004E03B461B689B69C7F80C313B461B6874
:10445C001B7B002B2CD13B461B6859693B461B68C8
:10446C00DA88D7F80C319BB2381D006801F02CFAB1
:10447C003B1D1B687B613B1D1B68B3F850309BB226
:10448C001A467B6913447B613B461B681B781A01F7
:10449C007B69134403F2044207F110031A60D7F846
:1044AC000C319AB207F110031B681A8000F0DDBCC6
:1044BC003B461B68DB78022B40F047833B461B686E
:1044CC001A6A3B461B681B699A4240F2EB823B1D01
:1044DC001A683B461B681B789B0013441B889BB2D5
:1044EC0023F4E04323F07003A7F85A303B1D1A68FD
:1044FC003B461B681B789B001A44B7F85A3043F0B4
:10450C007F4343F47F0343F4014343F080039BB2A6
:10451C0013803B461B681A6AD7F80C31D21A3B46FB
:10452C001B681A623B1D1A683B461B681B789B0074
:10453C0013441B889BB203F04003002B00F05981FD
:10454C003B1D1B687B633B461B685B78002B64D16F
:10455C003B1D1B68FB623B1D1B68B3F850309BB2C4
:10456C001A46FB6A1344FB623B461B681B781A0114
:10457C00FB6A134403F20C43BB62D7F80C31002BDB
:10458C0012D1BB6A1B889BB223F4F8439AB2BB6A64
:10459C001A80BB6A1B889BB26FEA43436FEA534392
:1045AC009AB2BB6A1A8054E0D7F80C313E2B17D85C
:1045BC00D7F80C315B08C7F80431D7F80C3103F08D
:1045CC000103002B04D0D7F804310133C7F80431B0
:1045DC00D7F804319BB29B029AB2BB6A1A8038E0BE
:1045EC00D7F80C315B09C7F80431D7F80C3103F05C
:1045FC001F03002B04D1D7F80431013BC7F8043159
:10460C00D7F804319BB29B029BB26FEA43436FEA2B
:10461C0053439AB2BB6A1A801BE03B461B685B781B
:10462C00012B16D13B1D1B68B3F850309BB21A46B8
:10463C007B6B13447B633B461B681B781A017B6BBB
:10464C00134403F20C433B63D7F80C319AB23B6B27
:10465C001A803B461B685B89A7F80A313B461B68EE
:10466C005969D7F80C319BB2B7F80A21381D00688C
:10467C0001F02AF93B461B685A69D7F80C311A44E9
:10468C003B461B685A613B461B681A6A3B461B68D3
:10469C001B699A4209D93B461B681A6AD7F80C3138
:1046AC00D21A3B461B681A6208E03B461B681B6A21
:1046BC00C7F80C313B461B6800221A623B461B684C
:1046CC005B78002B64D13B1D1B68FB613B1D1B6899
:1046DC00B3F850309BB21A46FB691344FB613B465E
:1046EC001B681B781A01FB69134403F20443BB617A
:1046FC00D7F80C31002B12D1BB691B889BB223F469
:10470C00F8439AB2BB691A80BB691B889BB26FEAEB
:10471C0043436FEA53439AB2BB691A8057E0D7F808
:10472C000C313E2B17D8D7F80C315B08C7F8003189
:10473C00D7F80C3103F00103002B04D0D7F800316B
:10474C000133C7F80031D7F800319BB29B029AB203
:10475C00BB691A803BE0D7F80C315B09C7F8003114
:10476C00D7F80C3103F01F03002B04D1D7F800311C
:10477C00013BC7F80031D7F800319BB29B029BB2CA
:10478C006FEA43436FEA53439AB2BB691A801EE047
:10479C003B461B685B78012B19D13B1D1B687B6268
:1047AC003B1D1B68B3F850309BB21A467B6A13440E
:1047BC007B623B461B681B781A017B6A134403F22D
:1047CC0004433B62D7F80C319AB23B6A1A803B46E1
:1047DC001B681B89A7F80A313B461B685969D7F837
:1047EC000C319BB2B7F80A21381D006801F06CF847
:1047FC003BE33B461B685B78002B64D13B1D1B687D
:10480C00FB643B1D1B68B3F850309BB21A46FB6C23
:10481C001344FB643B461B681B781A01FB6C134466
:10482C0003F20443BB64D7F80C31002B12D1BB6CE0
:10483C001B889BB223F4F8439AB2BB6C1A80BB6CF6
:10484C001B889BB26FEA43436FEA53439AB2BB6C2B
:10485C001A8057E0D7F80C313E2B17D8D7F80C310B
:10486C005B08C7F8FC30D7F80C3103F00103002BC0
:10487C0004D0D7F8FC300133C7F8FC30D7F8FC3043
:10488C009BB29B029AB2BB6C1A803BE0D7F80C31FE
:10489C005B09C7F8FC30D7F80C3103F01F03002B71
:1048AC0004D1D7F8FC30013BC7F8FC30D7F8FC300A
:1048BC009BB29B029BB26FEA43436FEA53439AB29B
:1048CC00BB6C1A801EE03B461B685B78012B19D130
:1048DC003B1D1B687B653B1D1B68B3F850309BB2BE
:1048EC001A467B6D13447B653B461B681B781A018B
:1048FC007B6D134403F204433B65D7F80C319AB239
:10490C003B6D1A803B461B681B89A7F80A313B4656
:10491C001B685969D7F80C319BB2B7F80A21381DBE
:10492C00006800F0D1FF3B461B685A69D7F80C3180
:10493C001A443B461B685A613B461B681A6A3B4645
:10494C001B681B699A4209D93B461B681A6AD7F83F
:10495C000C31D21A3B461B681A6208E03B461B68B6
:10496C001B6AC7F80C313B461B6800221A623B1DC0
:10497C001B687B643B461B685B78002B64D13B1D3A
:10498C001B68FB633B1D1B68B3F850309BB21A4687
:10499C00FB6B1344FB633B461B681B781A01FB6BD8
:1049AC00134403F20C43BB63D7F80C31002B12D128
:1049BC00BB6B1B889BB223F4F8439AB2BB6B1A8077
:1049CC00BB6B1B889BB26FEA43436FEA53439AB2AB
:1049DC00BB6B1A8054E0D7F80C313E2B17D8D7F8A4
:1049EC000C315B08C7F8F830D7F80C3103F0010331
:1049FC00002B04D0D7F8F8300133C7F8F830D7F8CB
:104A0C00F8309BB29B029AB2BB6B1A8038E0D7F895
:104A1C000C315B09C7F8F830D7F80C3103F01F03E1
:104A2C00002B04D1D7F8F830013BC7F8F830D7F891
:104A3C00F8309BB29B029BB26FEA43436FEA53433D
:104A4C009AB2BB6B1A801BE03B461B685B78012B50
:104A5C0016D13B1D1B68B3F850309BB21A467B6CC9
:104A6C0013447B643B461B681B781A017B6C134414
:104A7C0003F20C433B64D7F80C319AB23B6C1A80AE
:104A8C003B461B685B89A7F80A313B461B68596992
:104A9C00D7F80C319BB2B7F80A21381D006800F02A
:104AAC0013FFE2E13B461B681B6AC7F80C313B1D48
:104ABC001A683B461B681B789B0013441B889BB2EF
:104ACC0023F4E24323F07003A7F866303B1D1A6809
:104ADC003B461B681B789B001A44B7F8663043F0C2
:104AEC007F4343F47F0343F4004343F080039BB2C2
:104AFC0013803B1D1B683B663B1D1B68B3F8503095
:104B0C009BB21A463B6E13443B663B461B681B78B4
:104B1C001A013B6E134403F20443FB65D7F80C31C6
:104B2C009AB2FB6D1A803B461B681B89A7F80A31A9
:104B3C003B461B685969D7F80C319BB2B7F80A2170
:104B4C00381D006800F0C0FE8FE13B1D1A683B4623
:104B5C001B681B789B0013441B889BB203F040031B
:104B6C00002B00F08F803B1D1B68BB673B461B680E
:104B7C005B78002B64D13B1D1B683B673B1D1B689E
:104B8C00B3F850309BB21A463B6F13443B673B461D
:104B9C001B681B781A013B6F134403F20C43FB6632
:104BAC00D7F80C31002B12D1FB6E1B889BB223F46F
:104BBC00F8439AB2FB6E1A80FB6E1B889BB26FEAAD
:104BCC0043436FEA53439AB2FB6E1A8054E0D7F812
:104BDC000C313E2B17D8D7F80C315B08C7F8F430E2
:104BEC00D7F80C3103F00103002B04D0D7F8F430C4
:104BFC000133C7F8F430D7F8F4309BB29B029AB269
:104C0C00FB6E1A8038E0D7F80C315B09C7F8F4302A
:104C1C00D7F80C3103F01F03002B04D1D7F8F43074
:104C2C00013BC7F8F430D7F8F4309BB29B029BB22F
:104C3C006FEA43436FEA53439AB2FB6E1A801BE050
:104C4C003B461B685B78012B16D13B1D1B68B3F8E8
:104C5C0050309BB21A46BB6F1344BB673B461B6874
:104C6C001B781A01BB6F134403F20C437B67D7F814
:104C7C000C319AB27B6F1A803B461B685B89A7F894
:104C8C000A3197E03B461B685B78002B68D13B1DD3
:104C9C001B68C7F880303B1D1B68B3F850309BB2C3
:104CAC001A46D7F880301344C7F880303B461B684F
:104CBC001B781A01D7F88030134403F20443FB67C6
:104CCC00D7F80C31002B12D1FB6F1B889BB223F44D
:104CDC00F8439AB2FB6F1A80FB6F1B889BB26FEA8A
:104CEC0043436FEA53439AB2FB6F1A805DE0D7F8E7
:104CFC000C313E2B17D8D7F80C315B08C7F8F030C5
:104D0C00D7F80C3103F00103002B04D0D7F8F030A6
:104D1C000133C7F8F030D7F8F0309BB29B029AB24F
:104D2C00FB6F1A8041E0D7F80C315B09C7F8F03003
:104D3C00D7F80C3103F01F03002B04D1D7F8F03057
:104D4C00013BC7F8F030D7F8F0309BB29B029BB216
:104D5C006FEA43436FEA53439AB2FB6F1A8024E025
:104D6C003B461B685B78012B1FD13B1D1B68C7F8AA
:104D7C0088303B1D1B68B3F850309BB21A46D7F8ED
:104D8C0088301344C7F888303B461B681B781A01DF
:104D9C00D7F88830134403F20443C7F88430D7F8AB
:104DAC000C319AB2D7F884301A803B461B681B89A9
:104DBC00A7F80A313B461B685969D7F80C319BB2EE
:104DCC00B7F80A21381D006800F07EFD3B461B68D1
:104DDC005B78002B22D13B1D1A683B461B681B7865
:104DEC009B0013441B889BB223F4E04323F0700315
:104DFC00A7F868303B1D1A683B461B681B789B0064
:104E0C001A44B7F8683043F07F4343F47F0343F40C
:104E1C00004343F0C0039BB2138026E03B461B6863
:104E2C005B78012B21D13B1D1A683B461B681B7814
:104E3C009B0013441B889BB223F4E04323F07003C4
:104E4C00A7F86A303B1D1A683B461B681B789B0011
:104E5C001A44B7F86A3043F07F4343F47F0343F4BA
:104E6C00404343F080039BB213803B1D1A683B46C2
:104E7C001B681B789B0013441B889BB207F10E0226
:104E8C0023F4E04323F04003138007F10E0307F1F2
:104E9C000E02128882F010021A8007F10E0307F13D
:104EAC000E02128882F020021A803B1D1A683B46C3
:104EBC001B681B789B001A4407F10E031B8843F0F8
:104ECC007F4343F47F0343F4004343F080039BB2DE
:104EDC001380B5E33B461B681B7B002B40F0908096
:104EEC003B461B689A693B461B681B699A420ED964
:104EFC003B461B681B69C7F80C313B461B689A691B
:104F0C00D7F80C31D21A3B461B689A6108E03B4635
:104F1C001B689B69C7F80C313B461B6800229A61E1
:104F2C003B1D1B68C7F894303B1D1B68B3F8503011
:104F3C009BB21A46D7F894301344C7F894303B46CA
:104F4C001B681B781A01D7F89430134403F20C43F6
:104F5C00C7F89030D7F80C31002B16D1D7F8903019
:104F6C001B889BB223F4F8439AB2D7F890301A807E
:104F7C00D7F890301B889BB26FEA43436FEA5343D8
:104F8C009AB2D7F890301A802CE3D7F80C313E2B1C
:104F9C0018D8D7F80C315B08C7F8EC30D7F80C31BF
:104FAC0003F00103002B04D0D7F8EC300133C7F821
:104FBC00EC30D7F8EC309BB29B029AB2D7F8903019
:104FCC001A800FE3D7F80C315B09C7F8EC30D7F82F
:104FDC000C3103F01F03002B04D1D7F8EC30013B4C
:104FEC00C7F8EC30D7F8EC309BB29B029BB26FEA5F
:104FFC0043436FEA53439AB2D7F890301A80F1E2E8
:10500C003B461B68DB78022B40F08F813B461B68CC
:10501C005B78002B75D13B1D1B68C7F8B0303B1D6E
:10502C001B68B3F850309BB21A46D7F8B030134413
:10503C00C7F8B0303B461B681B781A01D7F8B03064
:10504C00134403F20443C7F8AC303B461B681B699E
:10505C00002B16D1D7F8AC301B889BB223F4F84345
:10506C009AB2D7F8AC301A80D7F8AC301B889BB208
:10507C006FEA43436FEA53439AB2D7F8AC301A80C5
:10508C0065E03B461B681B693E2B1AD83B461B68E8
:10509C001B695B08C7F8E8303B461B681B6903F0CB
:1050AC000103002B04D0D7F8E8300133C7F8E830FF
:1050BC00D7F8E8309BB29B029AB2D7F8AC301A8082
:1050CC0045E03B461B681B695B09C7F8E8303B466B
:1050DC001B681B6903F01F03002B04D1D7F8E830C1
:1050EC00013BC7F8E830D7F8E8309BB29B029BB283
:1050FC006FEA43436FEA53439AB2D7F8AC301A8045
:10510C0025E03B461B685B78012B20D13B1D1B68BF
:10511C00C7F8B8303B1D1B68B3F850309BB21A4629
:10512C00D7F8B8301344C7F8B8303B461B681B7827
:10513C001A01D7F8B830134403F20443C7F8B4305B
:10514C003B461B681B699AB2D7F8B4301A803B1DDA
:10515C001B68C7F8A8303B461B685B78002B75D1E1
:10516C003B1D1B68C7F8A0303B1D1B68B3F85030C3
:10517C009BB21A46D7F8A0301344C7F8A0303B4670
:10518C001B681B781A01D7F8A030134403F20C43A8
:10519C00C7F89C303B461B681B69002B16D1D7F80F
:1051AC009C301B889BB223F4F8439AB2D7F89C30FE
:1051BC001A80D7F89C301B889BB26FEA43436FEA86
:1051CC0053439AB2D7F89C301A8061E03B461B6877
:1051DC001B693E2B1AD83B461B681B695B08C7F83A
:1051EC00E4303B461B681B6903F00103002B04D021
:1051FC00D7F8E4300133C7F8E430D7F8E4309BB289
:10520C009B029AB2D7F89C301A8041E03B461B684F
:10521C001B695B09C7F8E4303B461B681B6903F04C
:10522C001F03002B04D1D7F8E430013BC7F8E4305E
:10523C00D7F8E4309BB29B029BB26FEA43436FEA10
:10524C0053439AB2D7F89C301A8021E03B461B6836
:10525C005B78012B1CD13B1D1B68B3F850309BB203
:10526C001A46D7F8A8301344C7F8A8303B461B6839
:10527C001B781A01D7F8A830134403F20C43C7F873
:10528C00A4303B461B681B699AB2D7F8A4301A802D
:10529C003B461B68DB69002B00F0A4813B1D1A68A0
:1052AC003B461B681B789B0013441B88A7F89A305D
:1052BC00B7F89A3003F48043002B05D0B7F89A3036
:1052CC0003F04003002B0DD1B7F89A3003F4804360
:1052DC00002B40F08781B7F89A3003F04003002B85
:1052EC0040F080813B1D1A683B461B681B789B0075
:1052FC0013441B889BB223F4E04323F07003A7F8FC
:10530C0098303B1D1A683B461B681B789B001A445F
:10531C00B7F8983043F07F4343F47F0343F40043E2
:10532C0043F0C0039BB213805CE13B461B68DB7807
:10533C00012B40F055813B461B689A693B461B6824
:10534C001B699A420ED93B461B681B69C7F80C3186
:10535C003B461B689A69D7F80C31D21A3B461B683E
:10536C009A6108E03B461B689B69C7F80C313B46C9
:10537C001B6800229A613B461B685B78002B6FD13F
:10538C003B1D1B68C7F8D0303B1D1B68B3F8503071
:10539C009BB21A46D7F8D0301344C7F8D0303B46EE
:1053AC001B681B781A01D7F8D030134403F204435E
:1053BC00C7F8CC30D7F80C31002B16D1D7F8CC303D
:1053CC001B889BB223F4F8439AB2D7F8CC301A80DE
:1053DC00D7F8CC301B889BB26FEA43436FEA534338
:1053EC009AB2D7F8CC301A805FE0D7F80C313E2B4C
:1053FC0018D8D7F80C315B08C7F8E030D7F80C3167
:10540C0003F00103002B04D0D7F8E0300133C7F8C8
:10541C00E030D7F8E0309BB29B029AB2D7F8CC3090
:10542C001A8042E0D7F80C315B09C7F8E030D7F8A6
:10543C000C3103F01F03002B04D1D7F8E030013BF3
:10544C00C7F8E030D7F8E0309BB29B029BB26FEA12
:10545C0043436FEA53439AB2D7F8CC301A8024E016
:10546C003B461B685B78012B1FD13B1D1B68C7F8A3
:10547C00D8303B1D1B68B3F850309BB21A46D7F896
:10548C00D8301344C7F8D8303B461B681B781A0138
:10549C00D7F8D830134403F20443C7F8D430D7F804
:1054AC000C319AB2D7F8D4301A803B1D1B68C7F860
:1054BC00C8303B461B685B78002B6FD13B1D1B68CB
:1054CC00C7F8C0303B1D1B68B3F850309BB21A466E
:1054DC00D7F8C0301344C7F8C0303B461B681B7864
:1054EC001A01D7F8C030134403F20C43C7F8BC3090
:1054FC00D7F80C31002B16D1D7F8BC301B889BB2D7
:10550C0023F4F8439AB2D7F8BC301A80D7F8BC30E1
:10551C001B889BB26FEA43436FEA53439AB2D7F8A6
:10552C00BC301A805EE0D7F80C313E2B18D8D7F877
:10553C000C315B08C7F8DC30D7F80C3103F00103F1
:10554C00002B04D0D7F8DC300133C7F8DC30D7F8A7
:10555C00DC309BB29B029AB2D7F8BC301A8041E087
:10556C00D7F80C315B09C7F8DC30D7F80C3103F0F5
:10557C001F03002B04D1D7F8DC30013BC7F8DC301B
:10558C00D7F8DC309BB29B029BB26FEA43436FEAC5
:10559C0053439AB2D7F8BC301A8023E03B461B68C1
:1055AC005B78012B1ED13B1D1B68B3F850309BB2AE
:1055BC001A46D7F8C8301344C7F8C8303B461B68A6
:1055CC001B781A01D7F8C830134403F20C43C7F800
:1055DC00C430D7F80C319AB2D7F8C4301A8001E035
:1055EC0001232EE03B1D1A683B461B681B789B0071
:1055FC0013441B889BB223F4804323F07003A7F859
:10560C008E30B7F88E3083F48053A7F88E30B7F80D
:10561C008E3083F40053A7F88E303B1D1A683B463E
:10562C001B681B789B001A44B7F88E3043F07F43FD
:10563C0043F47F0343F4004343F080039BB2138095
:10564C000023184607F58877BD4680BD80B485B029
:10565C0000AF786039603B685B78002B20D07A68AB
:10566C003B681B789B0013441B889BB223F4E043DC
:10567C0023F04003BB81BB8983F01003BB817A68A4
:10568C003B681B789B001A44BB8943F07F4343F46F
:10569C007F0343F4004343F080039BB213801FE06D
:1056AC007A683B681B789B0013441B889BB223F4DD
:1056BC00804323F07003FB81FB8983F48053FB81CF
:1056CC007A683B681B789B001A44FB8943F07F4344
:1056DC0043F47F0343F4004343F080039BB21380F5
:1056EC00002318461437BD4680BC704780B487B081
:1056FC0000AF786039603B681B7B002B40F09D80CD
:10570C003B685B78002B4CD07A683B681B789B001D
:10571C0013441B883B823B8A03F04003002B1BD0B5
:10572C007A683B681B789B0013441B889BB223F45C
:10573C00E04323F07003FB817A683B681B789B0085
:10574C001A44FB8943F07F4343F47F0343F4004343
:10575C0043F0C0039BB213803B68DB78012B6CD009
:10576C007A683B681B789B0013441B889BB223F41C
:10577C00E04323F04003BB81BB8983F02003BB8152
:10578C007A683B681B789B001A44BB8943F07F43C3
:10579C0043F47F0343F4004343F080039BB2138034
:1057AC004BE07A683B681B789B0013441B88FB8298
:1057BC00FB8A03F48043002B1BD07A683B681B7870
:1057CC009B0013441B889BB223F4E04323F070032B
:1057DC00BB827A683B681B789B001A44BB8A43F0F7
:1057EC007F4343F47F0343F4404343F080039BB275
:1057FC0013807A683B681B789B0013441B889BB210
:10580C0023F4804323F070037B827B8A83F48053E0
:10581C007B827B8A83F400537B827A683B681B789B
:10582C009B001A447B8A43F07F4343F47F0343F489
:10583C00004343F080039BB21380002318461C37AF
:10584C00BD4680BC704780B483B000AF78600B4617
:10585C00FB70FB78002B03D17B688022A3F84C20D3
:10586C00002318460C37BD4680BC704780B483B00B
:10587C0000AF7860002318460C37BD4680BC7047DB
:10588C0080B483B000AF7860002318460C37BD4657
:10589C0080BC704780B485B000AF78607B68B3F88B
:1058AC0044309BB2FB60FB6818461437BD4680BC85
:1058BC00704780B483B000AF78603960002318461D
:1058CC000C37BD4680BC704780B48DB000AFF8601B
:1058DC00B96011461A460B46FB801346BB80BB8849
:1058EC0001335B083B62FB68FB61BB687B62FB8836
:1058FC005A00FB69134403F58063BB623B6AFB628D
:10590C001EE07B6A1B78BB617B6A01337B627B6A1E
:10591C001B789BB21B029BB21A46BB6913437B617B
:10592C007B699AB2BB6A1A80BB6A0233BB62BB6AE0
:10593C000233BB627B6A01337B62FB6A013BFB6215
:10594C00FB6A002BDDD100BF3437BD4680BC7047ED
:10595C0080B48BB000AFF860B96011461A460B46A4
:10596C00FB801346BB80BB885B089BB2BB61FB68AA
:10597C007B61BB68FB61FB885A007B69134403F5B0
:10598C0080633B62BB697B621BE03B6A1B889BB2FA
:10599C003B613B6A02333B623B69DAB2FB691A70CA
:1059AC00FB690133FB613B691B0ADAB2FB691A70B4
:1059BC00FB690133FB613B6A02333B627B6A013B4F
:1059CC007B627B6A002BE0D1BB8803F001039BB2A6
:1059DC00002B07D03B6A1B889BB23B613B69DAB258
:1059EC00FB691A7000BF2C37BD4680BC704780B570
:1059FC0084B000AF78600B46FB700023FB737B68B0
:105A0C001B7C002B15D14FF4007302228121786886
:105A1C0001F01FFE7B680122DA624FF40073022250
:105A2C000121786801F015FE7B680122C3F86C2116
:105A3C0012E0402302228121786801F00AFE7B6883
:105A4C000122DA62402302220121786801F001FE72
:105A5C007B680122C3F86C21082303228221786819
:105A6C0001F0F7FD7B6801221A644FF4077001F016
:105A7C0017FF02467B68C3F8B8227B68D3F8B832AC
:105A8C00002B02D10123FB7326E07B68D3F8B832DC
:105A9C00BB607B68D3F8BC321B689847BB6800229C
:105AAC00C3F81422BB680022C3F818227B681B7C45
:105ABC00002B09D1BB68D3F804224FF400730121E9
:105ACC00786801F0B7FE07E0BB68D3F804224023E6
